{
  "_format": "hh-sol-artifact-1",
  "contractName": "ElectionFactory",
  "sourceName": "contracts/ElectionFactory.sol",
  "abi": [
    {
      "inputs": [],
      "stateMutability": "nonpayable",
      "type": "constructor"
    },
    {
      "anonymous": false,
      "inputs": [
        {
          "indexed": true,
          "internalType": "address",
          "name": "electionAddress",
          "type": "address"
        },
        {
          "indexed": false,
          "internalType": "string",
          "name": "name",
          "type": "string"
        },
        {
          "indexed": false,
          "internalType": "address",
          "name": "admin",
          "type": "address"
        }
      ],
      "name": "ElectionCreated",
      "type": "event"
    },
    {
      "inputs": [
        {
          "internalType": "string",
          "name": "_electionName",
          "type": "string"
        },
        {
          "internalType": "uint256",
          "name": "_durationInHours",
          "type": "uint256"
        }
      ],
      "name": "createElection",
      "outputs": [
        {
          "internalType": "address",
          "name": "",
          "type": "address"
        }
      ],
      "stateMutability": "nonpayable",
      "type": "function"
    },
    {
      "inputs": [
        {
          "internalType": "string",
          "name": "",
          "type": "string"
        }
      ],
      "name": "electionNameExists",
      "outputs": [
        {
          "internalType": "bool",
          "name": "",
          "type": "bool"
        }
      ],
      "stateMutability": "view",
      "type": "function"
    },
    {
      "inputs": [
        {
          "internalType": "address",
          "name": "",
          "type": "address"
        }
      ],
      "name": "electionNames",
      "outputs": [
        {
          "internalType": "string",
          "name": "",
          "type": "string"
        }
      ],
      "stateMutability": "view",
      "type": "function"
    },
    {
      "inputs": [
        {
          "internalType": "uint256",
          "name": "",
          "type": "uint256"
        }
      ],
      "name": "elections",
      "outputs": [
        {
          "internalType": "address",
          "name": "",
          "type": "address"
        }
      ],
      "stateMutability": "view",
      "type": "function"
    },
    {
      "inputs": [],
      "name": "getAllElections",
      "outputs": [
        {
          "internalType": "address[]",
          "name": "",
          "type": "address[]"
        }
      ],
      "stateMutability": "view",
      "type": "function"
    },
    {
      "inputs": [
        {
          "internalType": "address",
          "name": "_electionAddress",
          "type": "address"
        }
      ],
      "name": "getElectionName",
      "outputs": [
        {
          "internalType": "string",
          "name": "",
          "type": "string"
        }
      ],
      "stateMutability": "view",
      "type": "function"
    },
    {
      "inputs": [],
      "name": "getElectionsCount",
      "outputs": [
        {
          "internalType": "uint256",
          "name": "",
          "type": "uint256"
        }
      ],
      "stateMutability": "view",
      "type": "function"
    },
    {
      "inputs": [
        {
          "internalType": "string",
          "name": "_electionName",
          "type": "string"
        }
      ],
      "name": "isElectionNameExists",
      "outputs": [
        {
          "internalType": "bool",
          "name": "",
          "type": "bool"
        }
      ],
      "stateMutability": "view",
      "type": "function"
    },
    {
      "inputs": [],
      "name": "owner",
      "outputs": [
        {
          "internalType": "address",
          "name": "",
          "type": "address"
        }
      ],
      "stateMutability": "view",
      "type": "function"
    }
  ],
  "bytecode": "0x608060405234801561001057600080fd5b50600080546001600160a01b0319163317905561352c806100326000396000f3fe60806040523480156200001157600080fd5b50600436106200009e5760003560e01c80635e6fef01116200006e5780635e6fef01146200015b57806368263a3314620001725780637fd5f26814620001895780638da5cb5b14620001a2578063b1bb6ec314620001b657600080fd5b806262eca914620000a357806337d25dd814620000d2578063432cf2ce146200011457806350f3b0e01462000144575b600080fd5b620000ba620000b4366004620005e4565b620001c8565b604051620000c991906200066a565b60405180910390f35b62000103620000e33660046200072a565b805160208183018101805160028252928201919093012091525460ff1681565b6040519015158152602001620000c9565b6200012b620001253660046200076b565b6200027c565b6040516001600160a01b039091168152602001620000c9565b62000103620001553660046200072a565b62000478565b6200012b6200016c366004620007b4565b620004a5565b620000ba62000183366004620005e4565b620004d0565b6200019362000572565b604051620000c99190620007ce565b6000546200012b906001600160a01b031681565b600154604051908152602001620000c9565b6001600160a01b0381166000908152600360205260409020805460609190620001f1906200081d565b80601f01602080910402602001604051908101604052809291908181526020018280546200021f906200081d565b8015620002705780601f10620002445761010080835404028352916020019162000270565b820191906000526020600020905b8154815290600101906020018083116200025257829003601f168201915b50505050509050919050565b600080835111620002d45760405162461bcd60e51b815260206004820152601d60248201527f456c656374696f6e206e616d652063616e6e6f7420626520656d70747900000060448201526064015b60405180910390fd5b600283604051620002e6919062000859565b9081526040519081900360200190205460ff1615620003485760405162461bcd60e51b815260206004820152601c60248201527f456c656374696f6e206e616d6520616c726561647920657869737473000000006044820152606401620002cb565b60008383336040516200035b90620005d6565b620003699392919062000877565b604051809103906000f08015801562000386573d6000803e3d6000fd5b5060018054808201825560008290527fb10e2d527612073b26eecdfd717e6a320cf44b4afac2b0732d9fcbe2b7fa0cf60180546001600160a01b0319166001600160a01b0384161790556040519192508291600290620003e890889062000859565b9081526040805160209281900383019020805460ff1916931515939093179092556001600160a01b03831660009081526003909152206200042a8682620008ff565b50806001600160a01b03167f5daba0299dcf7387af0c6f4232e0fbd9b5bc965b67614eea46655c625ad6029c863360405162000468929190620009cc565b60405180910390a2949350505050565b60006002826040516200048c919062000859565b9081526040519081900360200190205460ff1692915050565b60018181548110620004b657600080fd5b6000918252602090912001546001600160a01b0316905081565b60036020526000908152604090208054620004eb906200081d565b80601f016020809104026020016040519081016040528092919081815260200182805462000519906200081d565b80156200056a5780601f106200053e576101008083540402835291602001916200056a565b820191906000526020600020905b8154815290600101906020018083116200054c57829003601f168201915b505050505081565b60606001805480602002602001604051908101604052809291908181526020018280548015620005cc57602002820191906000526020600020905b81546001600160a01b03168152600190910190602001808311620005ad575b5050505050905090565b612afe80620009f983390190565b600060208284031215620005f757600080fd5b81356001600160a01b03811681146200060f57600080fd5b9392505050565b60005b838110156200063357818101518382015260200162000619565b50506000910152565b600081518084526200065681602086016020860162000616565b601f01601f19169290920160200192915050565b6020815260006200060f60208301846200063c565b634e487b7160e01b600052604160045260246000fd5b600082601f830112620006a757600080fd5b813567ffffffffffffffff80821115620006c557620006c56200067f565b604051601f8301601f19908116603f01168101908282118183101715620006f057620006f06200067f565b816040528381528660208588010111156200070a57600080fd5b836020870160208301376000602085830101528094505050505092915050565b6000602082840312156200073d57600080fd5b813567ffffffffffffffff8111156200075557600080fd5b620007638482850162000695565b949350505050565b600080604083850312156200077f57600080fd5b823567ffffffffffffffff8111156200079757600080fd5b620007a58582860162000695565b95602094909401359450505050565b600060208284031215620007c757600080fd5b5035919050565b6020808252825182820181905260009190848201906040850190845b81811015620008115783516001600160a01b031683529284019291840191600101620007ea565b50909695505050505050565b600181811c908216806200083257607f821691505b6020821081036200085357634e487b7160e01b600052602260045260246000fd5b50919050565b600082516200086d81846020870162000616565b9190910192915050565b6060815260006200088c60608301866200063c565b6020830194909452506001600160a01b0391909116604090910152919050565b601f821115620008fa57600081815260208120601f850160051c81016020861015620008d55750805b601f850160051c820191505b81811015620008f657828155600101620008e1565b5050505b505050565b815167ffffffffffffffff8111156200091c576200091c6200067f565b62000934816200092d84546200081d565b84620008ac565b602080601f8311600181146200096c5760008415620009535750858301515b600019600386901b1c1916600185901b178555620008f6565b600085815260208120601f198616915b828110156200099d578886015182559484019460019091019084016200097c565b5085821015620009bc5787850151600019600388901b60f8161c191681555b5050505050600190811b01905550565b604081526000620009e160408301856200063c565b905060018060a01b0383166020830152939250505056fe60806040523480156200001157600080fd5b5060405162002afe38038062002afe8339810160408190526200003491620000fe565b600080546001600160a01b0319166001600160a01b03831617905560016200005d84826200027e565b5042600c556200007082610e1062000360565b6200007c904262000380565b600d55600280546000600b81905560058190556001600160a81b03199091169091556040805160208101909152908152600390620000bb90826200027e565b5050600060045550620003969050565b634e487b7160e01b600052604160045260246000fd5b80516001600160a01b0381168114620000f957600080fd5b919050565b6000806000606084860312156200011457600080fd5b83516001600160401b03808211156200012c57600080fd5b818601915086601f8301126200014157600080fd5b815181811115620001565762000156620000cb565b604051601f8201601f19908116603f01168101908382118183101715620001815762000181620000cb565b816040528281526020935089848487010111156200019e57600080fd5b600091505b82821015620001c25784820184015181830185015290830190620001a3565b60008484830101528097505050508086015193505050620001e660408501620000e1565b90509250925092565b600181811c908216806200020457607f821691505b6020821081036200022557634e487b7160e01b600052602260045260246000fd5b50919050565b601f8211156200027957600081815260208120601f850160051c81016020861015620002545750805b601f850160051c820191505b81811015620002755782815560010162000260565b5050505b505050565b81516001600160401b038111156200029a576200029a620000cb565b620002b281620002ab8454620001ef565b846200022b565b602080601f831160018114620002ea5760008415620002d15750858301515b600019600386901b1c1916600185901b17855562000275565b600085815260208120601f198616915b828110156200031b57888601518255948401946001909101908401620002fa565b50858210156200033a5787850151600019600388901b60f8161c191681555b5050505050600190811b01905550565b634e487b7160e01b600052601160045260246000fd5b80820281158282048414176200037a576200037a6200034a565b92915050565b808201808211156200037a576200037a6200034a565b61275880620003a66000396000f3fe608060405234801561001057600080fd5b50600436106101f05760003560e01c806359f784681161010f578063b906db02116100a2578063dfbf53ae11610071578063dfbf53ae146104b4578063e2ba53f0146104cc578063ec39335f146104d4578063f851a440146104eb57600080fd5b8063b906db0214610460578063c84422391461048c578063c94ca9e314610494578063d256d78d146104a157600080fd5b806380a1f712116100de57806380a1f712146103ef57806385e8e7a714610404578063a00977bf14610419578063a3ec138d1461042c57600080fd5b806359f7846814610351578063784e27891461035957806378e3ef201461036c57806378e97925146103e657600080fd5b806335b8e82011610187578063493b9cbb11610156578063493b9cbb146102e55780634a2a84c5146103085780635179fc491461031b57806358c61f9d1461032e57600080fd5b806335b8e82014610281578063382654241461029457806338db6dd3146102a75780633c652a9a146102ba57600080fd5b80632e6997fe116101c35780632e6997fe146102375780632f22850d1461024c5780633197cbb6146102555780633477ee2e1461025e57600080fd5b80630121b93f146101f55780630d15fd771461020a57806314034bd2146102265780632d35a8a21461022e575b600080fd5b610208610203366004611f7b565b6104fe565b005b61021360055481565b6040519081526020015b60405180910390f35b610208610711565b610213600b5481565b61023f6109f0565b60405161021d9190611fe4565b61021360045481565b610213600d5481565b61027161026c366004611f7b565b610b9e565b60405161021d9493929190612078565b61027161028f366004611f7b565b610c59565b6102086102a23660046120c9565b610db3565b6102086102b53660046120c9565b610fcf565b6102cd6102c8366004611f7b565b611166565b6040516001600160a01b03909116815260200161021d565b6102f86102f336600461218e565b611190565b604051901515815260200161021d565b6102086103163660046121cb565b6111bb565b6102086103293660046120c9565b6114b4565b61034161033c3660046120c9565b611831565b60405161021d9493929190612219565b6102086118f0565b6103416103673660046120c9565b61199e565b6103c961037a3660046120c9565b6001600160a01b03166000908152600760209081526040918290208251606081018452815460ff8082161515808452610100909204161515938201849052600190920154930183905292909190565b60408051931515845291151560208401529082015260600161021d565b610213600c5481565b6103f7611aab565b60405161021d9190612250565b61040c611b0d565b60405161021d919061229d565b61020861042736600461218e565b611b9b565b6103c961043a3660046120c9565b6007602052600090815260409020805460019091015460ff808316926101009004169083565b6102f861046e3660046120c9565b6001600160a01b03166000908152600a602052604090205460ff1690565b6102f8611dc4565b6002546102f89060ff1681565b6102086104af366004611f7b565b611dee565b6002546102cd9061010090046001600160a01b031681565b61040c611e60565b6104dc611e6d565b60405161021d939291906122b0565b6000546102cd906001600160a01b031681565b600c5442101580156105125750600d544211155b61055c5760405162461bcd60e51b8152602060048201526016602482015275456c656374696f6e206973206e6f742061637469766560501b60448201526064015b60405180910390fd5b60025460ff161561057f5760405162461bcd60e51b8152600401610553906122e4565b3360009081526007602052604090205460ff166105d55760405162461bcd60e51b8152602060048201526014602482015273159bdd195c881b9bdd081c9959da5cdd195c995960621b6044820152606401610553565b33600090815260076020526040902054610100900460ff161561062a5760405162461bcd60e51b815260206004820152600d60248201526c105b1c9958591e481d9bdd1959609a1b6044820152606401610553565b60008111801561063c5750600b548111155b61067c5760405162461bcd60e51b8152602060048201526011602482015270496e76616c69642063616e64696461746560781b6044820152606401610553565b336000908152600760209081526040808320805461ff001916610100178155600101849055838352600690915281206003018054916106ba83612326565b9091555050600580549060006106cf83612326565b909155505060408051338152602081018390527fa36cc2bebb74db33e9f88110a07ef56e1b31b24b4c4f51b54b1664266e29f45b91015b60405180910390a150565b6000546001600160a01b0316331461073b5760405162461bcd60e51b81526004016105539061233f565b60025460ff166107865760405162461bcd60e51b8152602060048201526016602482015275115b1958dd1a5bdb881b9bdd08195b991959081e595d60521b6044820152606401610553565b60025461010090046001600160a01b0316156107e45760405162461bcd60e51b815260206004820152601760248201527f57696e6e657220616c7265616479206465636c617265640000000000000000006044820152606401610553565b6000600b54116108365760405162461bcd60e51b815260206004820152601960248201527f4e6f2063616e6469646174657320696e20656c656374696f6e000000000000006044820152606401610553565b6000808060015b600b5481116108ba5760008181526006602052604090206003015484101561087e5760008181526006602052604081206003015494509092509050816108a8565b6000818152600660205260409020600301548414801561089e5750600084115b156108a857600191505b806108b281612326565b91505061083d565b506000821161090b5760405162461bcd60e51b815260206004820152601e60248201527f4e6f20766f7465732063617374206f72206e6f2063616e6469646174657300006044820152606401610553565b80156109525760015b600b5481116109505760008181526006602052604090206003015484900361093e57809250610950565b8061094881612326565b915050610914565b505b600082815260066020526040902060028082015481546001600160a01b0390911661010002610100600160a81b03199091161790556003906109979060010182612404565b5060048390556002546040517f4fe77c52dc5160af0c40cd54c141bfc62d80b8628d5c5dc5ad46ebdfdd9d43e3916109e3916101009091046001600160a01b03169060039087906124e5565b60405180910390a1505050565b60606000600b5467ffffffffffffffff811115610a0f57610a0f6120eb565b604051908082528060200260200182016040528015610a7457816020015b610a616040518060800160405280600081526020016060815260200160006001600160a01b03168152602001600081525090565b815260200190600190039081610a2d5790505b50905060005b600b54811015610b985760066000610a93836001612588565b815260200190815260200160002060405180608001604052908160008201548152602001600182018054610ac690612381565b80601f0160208091040260200160405190810160405280929190818152602001828054610af290612381565b8015610b3f5780601f10610b1457610100808354040283529160200191610b3f565b820191906000526020600020905b815481529060010190602001808311610b2257829003601f168201915b505050918352505060028201546001600160a01b031660208201526003909101546040909101528251839083908110610b7a57610b7a6125a1565b60200260200101819052508080610b9090612326565b915050610a7a565b50919050565b60066020526000908152604090208054600182018054919291610bc090612381565b80601f0160208091040260200160405190810160405280929190818152602001828054610bec90612381565b8015610c395780601f10610c0e57610100808354040283529160200191610c39565b820191906000526020600020905b815481529060010190602001808311610c1c57829003601f168201915b50505050600283015460039093015491926001600160a01b031691905084565b60006060600080600085118015610c725750600b548511155b610cb55760405162461bcd60e51b8152602060048201526014602482015273125b9d985b1a590818d85b991a59185d1948125160621b6044820152606401610553565b60006006600087815260200190815260200160002060405180608001604052908160008201548152602001600182018054610cef90612381565b80601f0160208091040260200160405190810160405280929190818152602001828054610d1b90612381565b8015610d685780601f10610d3d57610100808354040283529160200191610d68565b820191906000526020600020905b815481529060010190602001808311610d4b57829003601f168201915b505050918352505060028201546001600160a01b0316602080830191909152600390920154604091820152825191830151908301516060909301519199909850919650945092505050565b6000546001600160a01b03163314610ddd5760405162461bcd60e51b81526004016105539061233f565b6001600160a01b0381811660009081526008602052604090205416610e445760405162461bcd60e51b815260206004820152601d60248201527f4e6f20726567697374726174696f6e207265717565737420666f756e640000006044820152606401610553565b60005b600e54811015610f4c57816001600160a01b0316600e8281548110610e6e57610e6e6125a1565b6000918252602090912001546001600160a01b031603610f3a57600e8054610e98906001906125b7565b81548110610ea857610ea86125a1565b600091825260209091200154600e80546001600160a01b039092169183908110610ed457610ed46125a1565b9060005260206000200160006101000a8154816001600160a01b0302191690836001600160a01b03160217905550600e805480610f1357610f136125ca565b600082815260209020810160001990810180546001600160a01b0319169055019055610f4c565b80610f4481612326565b915050610e47565b506001600160a01b038116600090815260086020526040812080546001600160a01b031916815590610f816001830182611f25565b5060028101805460ff1916905560006003909101556040516001600160a01b03821681527f4b1fef9e4c021fe3e69a8305970a157dd5bf412c678058d14bacef0e866f9dbb90602001610706565b6000546001600160a01b03163314610ff95760405162461bcd60e51b81526004016105539061233f565b60025460ff161561101c5760405162461bcd60e51b8152600401610553906122e4565b6001600160a01b0381166110725760405162461bcd60e51b815260206004820152601c60248201527f566f74657220616464726573732063616e6e6f74206265207a65726f000000006044820152606401610553565b6001600160a01b03811660009081526007602052604090205460ff16156110d65760405162461bcd60e51b8152602060048201526018602482015277159bdd195c88185b1c9958591e481c9959da5cdd195c995960421b6044820152606401610553565b604080516060810182526001808252600060208084018281528486018381526001600160a01b038816808552600784529387902095518654925161ffff1990931690151561ff001916176101009215159290920291909117855551939092019290925591519081527fb6be2187d059cc2a55fe29e0e503b566e1e0f8c8780096e185429350acffd3dd9101610706565b600e818154811061117657600080fd5b6000918252602090912001546001600160a01b0316905081565b60006009826040516111a291906125e0565b9081526040519081900360200190205460ff1692915050565b6000546001600160a01b031633146111e55760405162461bcd60e51b81526004016105539061233f565b60025460ff16156112085760405162461bcd60e51b8152600401610553906122e4565b60008251116112595760405162461bcd60e51b815260206004820152601e60248201527f43616e646964617465206e616d652063616e6e6f7420626520656d70747900006044820152606401610553565b6001600160a01b0381166112af5760405162461bcd60e51b815260206004820181905260248201527f43616e64696461746520616464726573732063616e6e6f74206265207a65726f6044820152606401610553565b6009826040516112bf91906125e0565b9081526040519081900360200190205460ff161561131f5760405162461bcd60e51b815260206004820152601d60248201527f43616e646964617465206e616d6520616c7265616479206578697374730000006044820152606401610553565b6001600160a01b0381166000908152600a602052604090205460ff16156113885760405162461bcd60e51b815260206004820181905260248201527f43616e646964617465206164647265737320616c7265616479206578697374736044820152606401610553565b600b805490600061139883612326565b909155505060408051608081018252600b5480825260208083018681526001600160a01b03861684860152600060608501819052928352600690915292902081518155915190919060018201906113ef90826125fc565b506040828101516002830180546001600160a01b0319166001600160a01b03909216919091179055606090920151600390910155516001906009906114359085906125e0565b908152604080519182900360209081018320805494151560ff199586161790556001600160a01b0385166000908152600a909152208054909216600117909155600b547ff119bb07245e20116d1c56128be14390dbc24c94fc13ee0a9bc023da18bab01d916114a89190859085906126b6565b60405180910390a15050565b6000546001600160a01b031633146114de5760405162461bcd60e51b81526004016105539061233f565b60025460ff16156115015760405162461bcd60e51b8152600401610553906122e4565b6001600160a01b03818116600090815260086020526040902054166115685760405162461bcd60e51b815260206004820152601d60248201527f4e6f20726567697374726174696f6e207265717565737420666f756e640000006044820152606401610553565b6001600160a01b03811660009081526008602052604090206002015460ff16156115d45760405162461bcd60e51b815260206004820152601d60248201527f526567697374726174696f6e20616c726561647920617070726f7665640000006044820152606401610553565b6001600160a01b03811660009081526007602052604090205460ff16156116385760405162461bcd60e51b8152602060048201526018602482015277159bdd195c88185b1c9958591e481c9959da5cdd195c995960421b6044820152606401610553565b6001600160a01b03811660008181526008602090815260408083206002018054600160ff1990911681179091558151606081018352818152808401858152818401868152968652600790945291842091518254935161ffff1990941690151561ff001916176101009315159390930292909217815592519201919091555b600e548110156117bb57816001600160a01b0316600e82815481106116dd576116dd6125a1565b6000918252602090912001546001600160a01b0316036117a957600e8054611707906001906125b7565b81548110611717576117176125a1565b600091825260209091200154600e80546001600160a01b039092169183908110611743576117436125a1565b9060005260206000200160006101000a8154816001600160a01b0302191690836001600160a01b03160217905550600e805480611782576117826125ca565b600082815260209020810160001990810180546001600160a01b03191690550190556117bb565b806117b381612326565b9150506116b6565b506040516001600160a01b03821681527f7af1c8fdc38642d406f2261b755d979a4baffaa73fc5b2901cb0dd2b5e5c1de49060200160405180910390a16040516001600160a01b03821681527fb6be2187d059cc2a55fe29e0e503b566e1e0f8c8780096e185429350acffd3dd90602001610706565b600860205260009081526040902080546001820180546001600160a01b03909216929161185d90612381565b80601f016020809104026020016040519081016040528092919081815260200182805461188990612381565b80156118d65780601f106118ab576101008083540402835291602001916118d6565b820191906000526020600020905b8154815290600101906020018083116118b957829003601f168201915b505050506002830154600390930154919260ff1691905084565b6000546001600160a01b0316331461191a5760405162461bcd60e51b81526004016105539061233f565b60025460ff16156119665760405162461bcd60e51b8152602060048201526016602482015275115b1958dd1a5bdb88185b1c9958591e48195b99195960521b6044820152606401610553565b6002805460ff191660011790556040517f66ec723071e4bb646f7b35d31bc2dee8510979bd8c180edd0690d4f5e802f1e490600090a1565b6001600160a01b038082166000908152600860209081526040808320815160808101909252805490941681526001840180549394606094869485948594909392918401916119eb90612381565b80601f0160208091040260200160405190810160405280929190818152602001828054611a1790612381565b8015611a645780601f10611a3957610100808354040283529160200191611a64565b820191906000526020600020905b815481529060010190602001808311611a4757829003601f168201915b5050509183525050600282015460ff161515602080830191909152600390920154604091820152825191830151908301516060909301519199909850919650945092505050565b6060600e805480602002602001604051908101604052809291908181526020018280548015611b0357602002820191906000526020600020905b81546001600160a01b03168152600190910190602001808311611ae5575b5050505050905090565b60018054611b1a90612381565b80601f0160208091040260200160405190810160405280929190818152602001828054611b4690612381565b8015611b935780601f10611b6857610100808354040283529160200191611b93565b820191906000526020600020905b815481529060010190602001808311611b7657829003601f168201915b505050505081565b60025460ff1615611bbe5760405162461bcd60e51b8152600401610553906122e4565b6000815111611c0f5760405162461bcd60e51b815260206004820152601a60248201527f566f746572206e616d652063616e6e6f7420626520656d7074790000000000006044820152606401610553565b3360009081526007602052604090205460ff1615611c645760405162461bcd60e51b8152602060048201526012602482015271105b1c9958591e481c9959da5cdd195c995960721b6044820152606401610553565b336000908152600860205260409020546001600160a01b031615611cca5760405162461bcd60e51b815260206004820152601e60248201527f526567697374726174696f6e20616c72656164792072657175657374656400006044820152606401610553565b6040805160808101825233808252602080830185815260008486018190524260608601529283526008909152929020815181546001600160a01b0319166001600160a01b0390911617815591519091906001820190611d2990826125fc565b5060408281015160028301805460ff1916911515919091179055606090920151600390910155600e80546001810182556000919091527fbb7b4a454dc3493923482f07822329ed19e8244eff582cc204f8554c3620c3fd018054336001600160a01b0319909116811790915590517feb10dfd66753a4553b19deeba1a65b1e5d37a73d1c8ed99168ec642d05c2e997916107069184906126e7565b6000600c544210158015611dda5750600d544211155b8015611de9575060025460ff16155b905090565b6000546001600160a01b03163314611e185760405162461bcd60e51b81526004016105539061233f565b60025460ff1615611e3b5760405162461bcd60e51b8152600401610553906122e4565b611e4781610e1061270b565b600d6000828254611e589190612588565b909155505050565b60038054611b1a90612381565b600060606000600260019054906101000a90046001600160a01b03166003600454818054611e9a90612381565b80601f0160208091040260200160405190810160405280929190818152602001828054611ec690612381565b8015611f135780601f10611ee857610100808354040283529160200191611f13565b820191906000526020600020905b815481529060010190602001808311611ef657829003601f168201915b50505050509150925092509250909192565b508054611f3190612381565b6000825580601f10611f41575050565b601f016020900490600052602060002090810190611f5f9190611f62565b50565b5b80821115611f775760008155600101611f63565b5090565b600060208284031215611f8d57600080fd5b5035919050565b60005b83811015611faf578181015183820152602001611f97565b50506000910152565b60008151808452611fd0816020860160208601611f94565b601f01601f19169290920160200192915050565b60006020808301818452808551808352604092508286019150828160051b87010184880160005b8381101561206a57603f19898403018552815160808151855288820151818a87015261203982870182611fb8565b838a01516001600160a01b0316878b015260609384015193909601929092525050938601939086019060010161200b565b509098975050505050505050565b8481526080602082015260006120916080830186611fb8565b6001600160a01b03949094166040830152506060015292915050565b80356001600160a01b03811681146120c457600080fd5b919050565b6000602082840312156120db57600080fd5b6120e4826120ad565b9392505050565b634e487b7160e01b600052604160045260246000fd5b600082601f83011261211257600080fd5b813567ffffffffffffffff8082111561212d5761212d6120eb565b604051601f8301601f19908116603f01168101908282118183101715612155576121556120eb565b8160405283815286602085880101111561216e57600080fd5b836020870160208301376000602085830101528094505050505092915050565b6000602082840312156121a057600080fd5b813567ffffffffffffffff8111156121b757600080fd5b6121c384828501612101565b949350505050565b600080604083850312156121de57600080fd5b823567ffffffffffffffff8111156121f557600080fd5b61220185828601612101565b925050612210602084016120ad565b90509250929050565b6001600160a01b038516815260806020820181905260009061223d90830186611fb8565b9315156040830152506060015292915050565b6020808252825182820181905260009190848201906040850190845b818110156122915783516001600160a01b03168352928401929184019160010161226c565b50909695505050505050565b6020815260006120e46020830184611fb8565b6001600160a01b03841681526060602082018190526000906122d490830185611fb8565b9050826040830152949350505050565b602080825260129082015271115b1958dd1a5bdb881a185cc8195b99195960721b604082015260600190565b634e487b7160e01b600052601160045260246000fd5b60006001820161233857612338612310565b5060010190565b60208082526022908201527f4f6e6c792061646d696e2063616e20706572666f726d2074686973206163746960408201526137b760f11b606082015260800190565b600181811c9082168061239557607f821691505b602082108103610b9857634e487b7160e01b600052602260045260246000fd5b601f8211156123ff57600081815260208120601f850160051c810160208610156123dc5750805b601f850160051c820191505b818110156123fb578281556001016123e8565b5050505b505050565b81810361240f575050565b6124198254612381565b67ffffffffffffffff811115612431576124316120eb565b6124458161243f8454612381565b846123b5565b6000601f82116001811461247957600083156124615750848201545b600019600385901b1c1916600184901b1784556124de565b600085815260209020601f19841690600086815260209020845b838110156124b35782860154825560019586019590910190602001612493565b50858310156124d15781850154600019600388901b60f8161c191681555b50505060018360011b0184555b5050505050565b60018060a01b0384168152600060206060818401526000855461250781612381565b8060608701526080600180841660008114612529576001811461254357612571565b60ff1985168984015283151560051b890183019550612571565b8a6000528660002060005b858110156125695781548b820186015290830190880161254e565b8a0184019650505b505050505060409390930193909352509392505050565b8082018082111561259b5761259b612310565b92915050565b634e487b7160e01b600052603260045260246000fd5b8181038181111561259b5761259b612310565b634e487b7160e01b600052603160045260246000fd5b600082516125f2818460208701611f94565b9190910192915050565b815167ffffffffffffffff811115612616576126166120eb565b6126248161243f8454612381565b602080601f83116001811461265957600084156126415750858301515b600019600386901b1c1916600185901b1785556123fb565b600085815260208120601f198616915b8281101561268857888601518255948401946001909101908401612669565b50858210156126a65787850151600019600388901b60f8161c191681555b5050505050600190811b01905550565b8381526060602082015260006126cf6060830185611fb8565b905060018060a01b0383166040830152949350505050565b6001600160a01b03831681526040602082018190526000906121c390830184611fb8565b808202811582820484141761259b5761259b61231056fea2646970667358221220c770e28de994ce14d57553425b63a813d5afb00fa9e8e94ae5db4486a68c7c7764736f6c63430008120033a2646970667358221220b3170d9d937889ff453ade31701b46d18faec5806a73a9cfb8304b994a06e7e964736f6c63430008120033",
  "linkReferences": {},
  "deployedLinkReferences": {}
}